:020000040000FA
:0400000080313028F3
:100008007E1480312000911E0A280B282E28911278
:1000180023009D181028112815281D1D142815289F
:1000280019289D0190309D002E281908031D1D28B0
:100038001E28202822008C0123001903031D2528CF
:1000480026282928023022008C0023001908803134
:10005800722080317E100900803132287E10200005
:100068008031362880316820803123008C018D0151
:1000780021008C0102308D00023023009E00903058
:100088009D0008309F0033309B0020009112210012
:1000980091160B178B174F288031302822008C01BE
:1000A8008D01FF3021008C00FF308D00FE302300D1
:1000B8008D001F308C0024008D018C0121009517C4
:1000C80022009D019E01080080315220803180313C
:1000D8007B2080318031822080310800F0002300AD
:1000E8009E1C77287828732870089A0008007030BA
:1000F800210099009801220096010800163021007D
:040108009700080054
:020000040001F9
:04000E00E43FFF1EAE
:00000001FF
